{
  "contractName": "Y",
  "abi": [
    {
      "constant": true,
      "inputs": [],
      "name": "donationProportion",
      "outputs": [
        {
          "name": "num",
          "type": "uint256"
        },
        {
          "name": "denom",
          "type": "uint256"
        }
      ],
      "payable": false,
      "stateMutability": "view",
      "type": "function"
    },
    {
      "inputs": [
        {
          "name": "num",
          "type": "uint256"
        },
        {
          "name": "denom",
          "type": "uint256"
        }
      ],
      "payable": false,
      "stateMutability": "nonpayable",
      "type": "constructor"
    },
    {
      "constant": false,
      "inputs": [
        {
          "name": "num",
          "type": "uint256"
        },
        {
          "name": "denom",
          "type": "uint256"
        },
        {
          "name": "donee",
          "type": "address"
        }
      ],
      "name": "payAndDonate",
      "outputs": [
        {
          "name": "success",
          "type": "bool"
        }
      ],
      "payable": true,
      "stateMutability": "payable",
      "type": "function"
    },
    {
      "constant": false,
      "inputs": [
        {
          "name": "num",
          "type": "uint256"
        },
        {
          "name": "denom",
          "type": "uint256"
        }
      ],
      "name": "setDonationProportion",
      "outputs": [],
      "payable": false,
      "stateMutability": "nonpayable",
      "type": "function"
    },
    {
      "constant": false,
      "inputs": [
        {
          "name": "recipient",
          "type": "address"
        },
        {
          "name": "wei_",
          "type": "uint256"
        }
      ],
      "name": "unstickWei",
      "outputs": [],
      "payable": false,
      "stateMutability": "nonpayable",
      "type": "function"
    }
  ],
  "bytecode": "0x6060604052341561000f57600080fd5b6040516040806104c08339810160405280805190602001909190805190602001909190505081600010801561004357508082105b151561004e57600080fd5b60408051908101604052808381526020018281525060016000820151816000015560208201518160010155905050336000806101000a81548173ffffffffffffffffffffffffffffffffffffffff021916908373ffffffffffffffffffffffffffffffffffffffff16021790555050506103f3806100cd6000396000f300606060405260043610610062576000357c0100000000000000000000000000000000000000000000000000000000900463ffffffff1680633aa935cb1461006757806378e7d31314610093578063e70da0ac146100c3578063f04e63461461011b575b600080fd5b341561007257600080fd5b610091600480803590602001909190803590602001909190505061015d565b005b341561009e57600080fd5b6100a6610204565b604051808381526020018281526020019250505060405180910390f35b610101600480803590602001909190803590602001909190803573ffffffffffffffffffffffffffffffffffffffff16906020019091905050610216565b604051808215151515815260200191505060405180910390f35b341561012657600080fd5b61015b600480803573ffffffffffffffffffffffffffffffffffffffff16906020019091908035906020019091905050610328565b005b6000809054906101000a900473ffffffffffffffffffffffffffffffffffffffff1673ffffffffffffffffffffffffffffffffffffffff163373ffffffffffffffffffffffffffffffffffffffff161415156101b857600080fd5b8160001080156101c757508082105b15156101d257600080fd5b604080519081016040528083815260200182815250600160008201518160000155602082015181600101559050505050565b60018060000154908060010154905082565b600080600160000154851480156102305750600180015484145b151561023b57600080fd5b60016000015434600160000154340281151561025357fe5b0414151561026057600080fd5b6001800154600160000154340281151561027657fe5b0490506000809054906101000a900473ffffffffffffffffffffffffffffffffffffffff1673ffffffffffffffffffffffffffffffffffffffff166108fc8234039081150290604051600060405180830381858888f1935050505015156102dc57600080fd5b8273ffffffffffffffffffffffffffffffffffffffff166108fc829081150290604051600060405180830381858888f19350505050151561031c57600080fd5b60019150509392505050565b6000809054906101000a900473ffffffffffffffffffffffffffffffffffffffff1673ffffffffffffffffffffffffffffffffffffffff163373ffffffffffffffffffffffffffffffffffffffff1614151561038357600080fd5b8173ffffffffffffffffffffffffffffffffffffffff166108fc829081150290604051600060405180830381858888f1935050505015156103c357600080fd5b50505600a165627a7a723058207c28fa59dd911c19ed71f8ef9db80c14589b0d92ac8ff2d057d9687bf381688b0029",
  "source": "pragma solidity 0.4.19;\n\ncontract Y {\n    address payee;\n    Proportion public donationProportion;\n    struct Proportion {\n        uint num; // numerator\n        uint denom; // denominator\n    } // e.g. 25% (25/100, or 0.25) is represented as Proportion(25, 100)\n\n    function Y(uint num, uint denom) public {\n        require(0 < num && num < denom); // 0% < num/denom < 100%\n        donationProportion = Proportion(num, denom);\n        payee = msg.sender;\n    }\n\n    function payAndDonate(uint num, uint denom, address donee) external payable returns (bool success) {\n        require(num == donationProportion.num && denom == donationProportion.denom);\n        require((msg.value * donationProportion.num) / msg.value == donationProportion.num); // OpenZeppelin\n        uint donation = (msg.value * donationProportion.num) / donationProportion.denom;\n        payee.transfer(msg.value - donation); // won't underflow, donation always <= msg.value\n        donee.transfer(donation);\n        return true;\n    }\n\n    function setDonationProportion(uint num, uint denom) external {\n        require(msg.sender == payee);\n        require(0 < num && num < denom); // 0% < num/denom < 100%\n        donationProportion = Proportion(num, denom);\n    }\n\n    // only needed if wei gets stuck, though that is not expected\n    function unstickWei(address recipient, uint wei_) external {\n        require(msg.sender == payee);\n        recipient.transfer(wei_);\n    }\n\n    // function stickWei() external payable {} // only for testing unstickWei\n}\n",
  "sourcePath": "/Users/willwhite/prog/Y/av/Y/contracts/Y.sol",
  "compiler": {
    "name": "solc",
    "version": "0.4.19+commit.c4cbbb05.Emscripten.clang"
  },
  "schemaVersion": "2.0.0",
  "updatedAt": "2018-07-09T17:29:56.426Z"
}