{
  "contractName": "Y2",
  "abi": [
    {
      "inputs": [],
      "payable": false,
      "stateMutability": "nonpayable",
      "type": "constructor"
    },
    {
      "constant": false,
      "inputs": [
        {
          "name": "payee",
          "type": "address"
        },
        {
          "name": "donee",
          "type": "address"
        },
        {
          "name": "num",
          "type": "uint256"
        },
        {
          "name": "denom",
          "type": "uint256"
        }
      ],
      "name": "payAndDonate",
      "outputs": [
        {
          "name": "success",
          "type": "bool"
        }
      ],
      "payable": true,
      "stateMutability": "payable",
      "type": "function"
    },
    {
      "constant": false,
      "inputs": [
        {
          "name": "num",
          "type": "uint256"
        },
        {
          "name": "denom",
          "type": "uint256"
        }
      ],
      "name": "setDonationProportion",
      "outputs": [],
      "payable": false,
      "stateMutability": "nonpayable",
      "type": "function"
    },
    {
      "constant": true,
      "inputs": [
        {
          "name": "payee",
          "type": "address"
        }
      ],
      "name": "getDonationProportion",
      "outputs": [
        {
          "name": "num",
          "type": "uint256"
        },
        {
          "name": "denom",
          "type": "uint256"
        }
      ],
      "payable": false,
      "stateMutability": "view",
      "type": "function"
    },
    {
      "constant": false,
      "inputs": [
        {
          "name": "recipient",
          "type": "address"
        },
        {
          "name": "wei_",
          "type": "uint256"
        }
      ],
      "name": "unstickWei",
      "outputs": [],
      "payable": false,
      "stateMutability": "nonpayable",
      "type": "function"
    }
  ],
  "bytecode": "0x6060604052341561000f57600080fd5b336000806101000a81548173ffffffffffffffffffffffffffffffffffffffff021916908373ffffffffffffffffffffffffffffffffffffffff1602179055506106c88061005e6000396000f300606060405260043610610062576000357c0100000000000000000000000000000000000000000000000000000000900463ffffffff1680633aa935cb14610067578063a2c4990814610093578063b8be4deb1461010a578063f04e63461461015e575b600080fd5b341561007257600080fd5b61009160048080359060200190919080359060200190919050506101a0565b005b6100f0600480803573ffffffffffffffffffffffffffffffffffffffff1690602001909190803573ffffffffffffffffffffffffffffffffffffffff16906020019091908035906020019091908035906020019091905050610229565b604051808215151515815260200191505060405180910390f35b341561011557600080fd5b610141600480803573ffffffffffffffffffffffffffffffffffffffff1690602001909190505061048b565b604051808381526020018281526020019250505060405180910390f35b341561016957600080fd5b61019e600480803573ffffffffffffffffffffffffffffffffffffffff169060200190919080359060200190919050506105fd565b005b8160001080156101af57508082105b15156101ba57600080fd5b604080519081016040528083815260200182815250600160003373ffffffffffffffffffffffffffffffffffffffff1673ffffffffffffffffffffffffffffffffffffffff16815260200190815260200160002060008201518160000155602082015181600101559050505050565b600080600160008773ffffffffffffffffffffffffffffffffffffffff1673ffffffffffffffffffffffffffffffffffffffff16815260200190815260200160002060000154841480156102be5750600160008773ffffffffffffffffffffffffffffffffffffffff1673ffffffffffffffffffffffffffffffffffffffff1681526020019081526020016000206001015483145b15156102c957600080fd5b600160008773ffffffffffffffffffffffffffffffffffffffff1673ffffffffffffffffffffffffffffffffffffffff1681526020019081526020016000206000015434600160008973ffffffffffffffffffffffffffffffffffffffff1673ffffffffffffffffffffffffffffffffffffffff16815260200190815260200160002060000154340281151561035b57fe5b0414151561036857600080fd5b600160008773ffffffffffffffffffffffffffffffffffffffff1673ffffffffffffffffffffffffffffffffffffffff16815260200190815260200160002060010154600160008873ffffffffffffffffffffffffffffffffffffffff1673ffffffffffffffffffffffffffffffffffffffff1681526020019081526020016000206000015434028115156103f957fe5b0490508573ffffffffffffffffffffffffffffffffffffffff166108fc8234039081150290604051600060405180830381858888f19350505050151561043e57600080fd5b8473ffffffffffffffffffffffffffffffffffffffff166108fc829081150290604051600060405180830381858888f19350505050151561047e57600080fd5b6001915050949350505050565b600080600160008473ffffffffffffffffffffffffffffffffffffffff1673ffffffffffffffffffffffffffffffffffffffff1681526020019081526020016000206000015460001080156105635750600160008473ffffffffffffffffffffffffffffffffffffffff1673ffffffffffffffffffffffffffffffffffffffff16815260200190815260200160002060010154600160008573ffffffffffffffffffffffffffffffffffffffff1673ffffffffffffffffffffffffffffffffffffffff16815260200190815260200160002060000154105b151561056e57600080fd5b600160008473ffffffffffffffffffffffffffffffffffffffff1673ffffffffffffffffffffffffffffffffffffffff16815260200190815260200160002060000154600160008573ffffffffffffffffffffffffffffffffffffffff1673ffffffffffffffffffffffffffffffffffffffff1681526020019081526020016000206001015491509150915091565b6000809054906101000a900473ffffffffffffffffffffffffffffffffffffffff1673ffffffffffffffffffffffffffffffffffffffff163373ffffffffffffffffffffffffffffffffffffffff1614151561065857600080fd5b8173ffffffffffffffffffffffffffffffffffffffff166108fc829081150290604051600060405180830381858888f19350505050151561069857600080fd5b50505600a165627a7a7230582061f3e05386408652f20f92b48c16a035be63238b427f192f4df8be0a138e1fdd0029",
  "source": "pragma solidity 0.4.19;\n\ncontract Y2 {\n    address owner;\n    mapping(address => Proportion) donationProportion;\n    struct Proportion {\n        uint num; // numerator\n        uint denom; // denominator\n    } // e.g. 25% (25/100, or 0.25) is represented as Proportion(25, 100)\n\n    function Y2() public {\n        owner = msg.sender;\n    }\n\n    function payAndDonate(address payee, address donee, uint num, uint denom) external payable returns (bool success) {\n        require(num == donationProportion[payee].num && denom == donationProportion[payee].denom);\n        require((msg.value * donationProportion[payee].num) / msg.value == donationProportion[payee].num); // OpenZeppelin\n        uint donation = (msg.value * donationProportion[payee].num) / donationProportion[payee].denom;\n        payee.transfer(msg.value - donation); // won't underflow, donation always <= msg.value\n        donee.transfer(donation);\n        return true;\n    }\n\n    function setDonationProportion(uint num, uint denom) external {\n        require(0 < num && num < denom); // 0% < num/denom < 100%\n        donationProportion[msg.sender] = Proportion(num, denom);\n    }\n\n    function getDonationProportion(address payee) external view returns (uint num, uint denom) {\n        require(0 < donationProportion[payee].num && donationProportion[payee].num < donationProportion[payee].denom); // 0% < num/denom < 100%\n        return (donationProportion[payee].num, donationProportion[payee].denom);\n    }\n\n    // only needed if wei gets stuck, though that is not expected\n    function unstickWei(address recipient, uint wei_) external {\n        require(msg.sender == owner);\n        recipient.transfer(wei_);\n    }\n\n    // function stickWei() external payable {} // only for testing unstickWei\n}\n",
  "sourcePath": "/Users/willwhite/prog/Y/av/Y/contracts/Y2.sol",
  "compiler": {
    "name": "solc",
    "version": "0.4.19+commit.c4cbbb05.Emscripten.clang"
  },
  "schemaVersion": "2.0.0",
  "updatedAt": "2018-07-14T17:20:22.271Z"
}